{"abi":[{"type":"function","name":"createInvoice","inputs":[{"name":"amountDue","type":"uint256","internalType":"uint256"},{"name":"to","type":"address","internalType":"address"}],"outputs":[],"stateMutability":"nonpayable"},{"type":"function","name":"getMyReceivedInvoices","inputs":[{"name":"add","type":"address","internalType":"address"}],"outputs":[{"name":"","type":"tuple[]","internalType":"struct Chainvoice.InvoiceDetails[]","components":[{"name":"id","type":"uint256","internalType":"uint256"},{"name":"from","type":"address","internalType":"address"},{"name":"to","type":"address","internalType":"address"},{"name":"amountDue","type":"uint256","internalType":"uint256"},{"name":"isPaid","type":"bool","internalType":"bool"}]}],"stateMutability":"view"},{"type":"function","name":"getMySentInvoices","inputs":[],"outputs":[{"name":"","type":"tuple[]","internalType":"struct Chainvoice.InvoiceDetails[]","components":[{"name":"id","type":"uint256","internalType":"uint256"},{"name":"from","type":"address","internalType":"address"},{"name":"to","type":"address","internalType":"address"},{"name":"amountDue","type":"uint256","internalType":"uint256"},{"name":"isPaid","type":"bool","internalType":"bool"}]}],"stateMutability":"view"},{"type":"function","name":"invoices","inputs":[{"name":"","type":"uint256","internalType":"uint256"}],"outputs":[{"name":"id","type":"uint256","internalType":"uint256"},{"name":"from","type":"address","internalType":"address"},{"name":"to","type":"address","internalType":"address"},{"name":"amountDue","type":"uint256","internalType":"uint256"},{"name":"isPaid","type":"bool","internalType":"bool"}],"stateMutability":"view"},{"type":"function","name":"payInvoice","inputs":[{"name":"invoiceId","type":"uint256","internalType":"uint256"}],"outputs":[],"stateMutability":"payable"},{"type":"function","name":"receivedInvoices","inputs":[{"name":"","type":"address","internalType":"address"},{"name":"","type":"uint256","internalType":"uint256"}],"outputs":[{"name":"","type":"uint256","internalType":"uint256"}],"stateMutability":"view"},{"type":"function","name":"sentInvoices","inputs":[{"name":"","type":"address","internalType":"address"},{"name":"","type":"uint256","internalType":"uint256"}],"outputs":[{"name":"","type":"uint256","internalType":"uint256"}],"stateMutability":"view"},{"type":"event","name":"InvoiceCreated","inputs":[{"name":"id","type":"uint256","indexed":false,"internalType":"uint256"},{"name":"from","type":"address","indexed":true,"internalType":"address"},{"name":"to","type":"address","indexed":true,"internalType":"address"},{"name":"amountDue","type":"uint256","indexed":false,"internalType":"uint256"}],"anonymous":false},{"type":"event","name":"InvoicePaid","inputs":[{"name":"id","type":"uint256","indexed":false,"internalType":"uint256"},{"name":"from","type":"address","indexed":true,"internalType":"address"},{"name":"to","type":"address","indexed":true,"internalType":"address"},{"name":"amountPaid","type":"uint256","indexed":false,"internalType":"uint256"}],"anonymous":false}],"bytecode":{"object":"0x6080604052348015600e575f5ffd5b50610a468061001c5f395ff3fe60806040526004361061006e575f3560e01c80635094e3471161004c5780635094e347146101185780637d26dae61461014457806392f70af714610158578063ac60a6cd14610179575f5ffd5b806305fac2301461007257806339524669146100a45780634e6d1405146100c3575b5f5ffd5b34801561007d575f5ffd5b5061009161008c3660046108e0565b61018c565b6040519081526020015b60405180910390f35b3480156100af575f5ffd5b506100916100be3660046108e0565b6101b7565b3480156100ce575f5ffd5b506100e26100dd366004610908565b6101d0565b604080519586526001600160a01b039485166020870152929093169184019190915260608301521515608082015260a00161009b565b348015610123575f5ffd5b5061013761013236600461091f565b61021c565b60405161009b919061093f565b34801561014f575f5ffd5b50610137610245565b348015610163575f5ffd5b506101776101723660046109be565b610264565b005b610177610187366004610908565b610522565b6001602052815f5260405f2081815481106101a5575f80fd5b905f5260205f20015f91509150505481565b6002602052815f5260405f2081815481106101a5575f80fd5b5f81815481106101de575f80fd5b5f918252602090912060059091020180546001820154600283015460038401546004909401549294506001600160a01b039182169391169160ff1685565b6001600160a01b0381165f90815260026020526040902060609061023f9061078a565b92915050565b335f90815260016020526040902060609061025f9061078a565b905090565b5f82116102b85760405162461bcd60e51b815260206004820181905260248201527f416d6f756e74206d7573742062652067726561746572207468616e207a65726f60448201526064015b60405180910390fd5b6001600160a01b03811661030e5760405162461bcd60e51b815260206004820152601f60248201527f526563656976657220616464726573732063616e6e6f74206265207a65726f0060448201526064016102af565b336001600160a01b038216036103715760405162461bcd60e51b815260206004820152602260248201527f43616e6e6f742063726561746520696e766f69636520666f7220796f75727365604482015261363360f11b60648201526084016102af565b5f80546040805160a0810182528281523360208083018281526001600160a01b03888116858701818152606087018c8152608088018b81526001808c018d558c805298517f290decd9548b62a8d60345a988386fc84ba6bc95484008f6362f93160ef3e56360058d029081019190915595517f290decd9548b62a8d60345a988386fc84ba6bc95484008f6362f93160ef3e564870180546001600160a01b031990811692881692909217905592517f290decd9548b62a8d60345a988386fc84ba6bc95484008f6362f93160ef3e56587018054909416951694909417909155517f290decd9548b62a8d60345a988386fc84ba6bc95484008f6362f93160ef3e56684015590517f290decd9548b62a8d60345a988386fc84ba6bc95484008f6362f93160ef3e567909201805460ff191692151592909217909155828752838252848720805480860182559088528288200186905580875260028252848720805494850181558752958190209092018490558251848152918201879052929392917f88721abb1d35cff296c5d462601d6bdfed57e9493f8c361d2bcc24241a2ebfec91015b60405180910390a3505050565b5f5481106105675760405162461bcd60e51b8152602060048201526012602482015271125b9d985b1a59081a5b9d9bda58d948125160721b60448201526064016102af565b5f5f828154811061057a5761057a6109e8565b5f918252602090912060059091020160028101549091506001600160a01b031633146105f35760405162461bcd60e51b815260206004820152602260248201527f4e6f7420617574686f72697a656420746f20706179207468697320696e766f69604482015261636560f01b60648201526084016102af565b600481015460ff161561063f5760405162461bcd60e51b8152602060048201526014602482015273125b9d9bda58d948185b1c9958591e481c185a5960621b60448201526064016102af565b806003015434146106925760405162461bcd60e51b815260206004820152601860248201527f496e636f7272656374207061796d656e7420616d6f756e74000000000000000060448201526064016102af565b60018101546040515f916001600160a01b03169034908381818185875af1925050503d805f81146106de576040519150601f19603f3d011682016040523d82523d5f602084013e6106e3565b606091505b50509050806107345760405162461bcd60e51b815260206004820152601760248201527f5061796d656e74207472616e73666572206661696c656400000000000000000060448201526064016102af565b60048201805460ff191660019081179091558201546040805185815234602082015233926001600160a01b0316917f4894261bc8821cd0e09696d6fa3e110c4034efc8f207633c1e1d16b7ea07fe7b9101610515565b80546060905f9067ffffffffffffffff8111156107a9576107a96109fc565b60405190808252806020026020018201604052801561080057816020015b6040805160a0810182525f808252602080830182905292820181905260608201819052608082015282525f199092019101816107c75790505b5090505f5b83548110156108be575f848281548110610821576108216109e8565b905f5260205f2001548154811061083a5761083a6109e8565b5f9182526020918290206040805160a08101825260059093029091018054835260018101546001600160a01b03908116948401949094526002810154909316908201526003820154606082015260049091015460ff161515608082015282518390839081106108ab576108ab6109e8565b6020908102919091010152600101610805565b5092915050565b80356001600160a01b03811681146108db575f5ffd5b919050565b5f5f604083850312156108f1575f5ffd5b6108fa836108c5565b946020939093013593505050565b5f60208284031215610918575f5ffd5b5035919050565b5f6020828403121561092f575f5ffd5b610938826108c5565b9392505050565b602080825282518282018190525f918401906040840190835b818110156109b3578351805184526020808201516001600160a01b039081168287015260408084015190911690860152606080830151908601526080918201511515918501919091529093019260a090920191600101610958565b509095945050505050565b5f5f604083850312156109cf575f5ffd5b823591506109df602084016108c5565b90509250929050565b634e487b7160e01b5f52603260045260245ffd5b634e487b7160e01b5f52604160045260245ffdfea2646970667358221220590804ecc60967b69aa9a567b86d6e7d02672cad4585372c23dfabd756a91ddb64736f6c634300081c0033","linkReferences":{}},"methodIdentifiers":{"createInvoice(uint256,address)":"92f70af7","getMyReceivedInvoices(address)":"5094e347","getMySentInvoices()":"7d26dae6","invoices(uint256)":"4e6d1405","payInvoice(uint256)":"ac60a6cd","receivedInvoices(address,uint256)":"39524669","sentInvoices(address,uint256)":"05fac230"},"id":23}